:100000000C9446000C9465000C9465000C946500FB
:100010000C9465000C9465000C9465000C946500CC
:100020000C9465000C9465000C9465000C946500BC
:100030000C9465000C9465000C9465000C946500AC
:100040000C9465000C9465000C9465000C9465009C
:100050000C9465000C9465000C9465000C9465008C
:100060000C9465000C9465000C9465000C9465007C
:100070000C9465000C9465000C9465000C9465006C
:100080000C9465000C9465000C94650011241FBE4F
:10009000CFEFD0E4DEBFCDBF11E0A0E0B1E0E6E4F9
:1000A000F3E000E00BBF02C007900D92AE30B10745
:1000B000D9F721E0AEE0B1E001C01D92A331B20753
:1000C000E1F70E9478010C94A1010C940000CF93F9
:1000D000DF9300D01F92CDB7DEB789837B836A831D
:1000E00089818A3031F48A819B81BC018DE00E9434
:1000F000670080EC90E0FC018081882F90E08072A6
:100100009927892BB1F386EC90E02981FC012083AB
:1001100080E090E00F900F900F90DF91CF910895C5
:10012000CF93DF93CDB7DEB780910E0190910F0191
:1001300082309105B1F18330910528F4009779F070
:100140000197A1F0ABC08430910509F467C08430F9
:10015000910508F44EC0059709F485C09FC081E061
:1001600090E090930F0180930E0198C0809112014E
:10017000843039F482E090E090930F0180930E0177
:1001800088C080911201813029F080911201823063
:1001900009F07FC081E090E090930F0180930E0101
:1001A00078C080911201843039F483E090E090931C
:1001B0000F0180930E0172C080911201823039F4D8
:1001C00084E090E090930F0180930E0167C08091CE
:1001D0001201882339F482E090E090930F0180931C
:1001E0000E015CC081E090E090930F0180930E01BE
:1001F00055C080911201843039F483E090E09093EF
:100200000F0180930E010AC080911201882331F4FE
:1002100084E090E090930F0180930E018091120191
:10022000882339F484E090E090930F0180930E01CD
:1002300032C080911201813021F08091120184300E
:1002400039F481E090E090930F0180930E0123C078
:10025000809112018230F9F485E090E090930F01D3
:1002600080930E0118C080911201882339F486E032
:1002700090E090930F0180930E010FC080911201C6
:10028000823059F485E090E090930F0180930E0145
:1002900004C0000003C0000001C0000080910E01F6
:1002A00090910F018230910579F08330910518F417
:1002B000019739F013C08430910549F0069759F041
:1002C0000DC0109210010AC01092100107C081E009
:1002D0008093100103C010921001000085E290E0AD
:1002E00020911001FC0120830000DF91CF9108953F
:1002F000CF93DF93CDB7DEB781E290E0FC011082AF
:1003000082E290E02FEFFC01208384E290E02FEF67
:10031000FC01208385E290E0FC0110821092100124
:100320001092110181E090E090930F0180930E01F3
:1003300080E290E0FC018081809312010E94900095
:06034000F7CFF894FFCF97
:0E034600000000020000000067000000000040
:00000001FF
