:100000000C944D000C946C000C946C000C946C00DF
:100010000C946C000C946C000C946C000C946C00B0
:100020000C946C000C946C000C946C000C946C00A0
:100030000C946C000C946C000C946C000C946C0090
:100040000C946C000C946C000C946C000C946C0080
:100050000C946C000C946C000C946C000C946C0070
:100060000C946C000C946C000C946C000C946C0060
:100070000C946C000C946C000C946C000C946C0050
:100080000C946C000C946C000C946C00B100B800E3
:10009000D500EC00190130015B0111241FBECFEF28
:1000A000D0E4DEBFCDBF11E0A0E0B1E0ECEDF3E0C5
:1000B00000E00BBF02C007900D92AE30B107D9F738
:1000C00021E0AEE0B1E001C01D92A231B207E1F73C
:1000D0000E94BC010C94EC010C940000CF93DF93C0
:1000E00000D01F92CDB7DEB789837B836A83898175
:1000F0008A3031F48A819B81BC018DE00E946E00C0
:1001000080EC90E0FC018081882F90E0807299273C
:10011000892BB1F386EC90E02981FC01208380E0FB
:1001200090E00F900F900F90DF91CF910895CF93B3
:10013000DF93CDB7DEB780910E0190910F01CC0116
:10014000A0E0B0E040E050E026E030E0841B950BFA
:100150002817390708F4D0C08A5B9F4FFC010C9424
:10016000E30181E090E090930F0180930E01D4C0F1
:1001700080911101882339F481E090E090930F0180
:1001800080930E01C9C080911101813039F482E061
:1001900090E090930F0180930E01BEC084E090E048
:1001A00090930F0180930E01B7C0809111018130AF
:1001B00039F483E090E090930F0180930E01A5C085
:1001C00080911101823009F0A0C084E090E090930A
:1001D0000F0180930E0199C080911101882339F499
:1001E00081E090E090930F0180930E0190C0809188
:1001F0001101813039F483E090E090930F018093F6
:100200000E0185C080911101823039F484E090E0C4
:1002100090930F0180930E017AC080911101833079
:1002200009F075C086E090E090930F0180930E0175
:100230006EC080911101823039F485E090E0909396
:100240000F0180930E0165C080911101813009F08A
:1002500060C082E090E090930F0180930E0159C03E
:1002600080911101882339F481E090E090930F018F
:1002700080930E0120C080911101813039F482E019
:1002800090E090930F0180930E0115C080911101B1
:10029000823039F485E090E090930F0180930E0155
:1002A0000AC080911101833031F486E090E0909390
:1002B0000F0180930E0180911101833039F486E0A3
:1002C00090E090930F0180930E0125C08091110161
:1002D000813039F482E090E090930F0180930E0119
:1002E0001AC0809111018230B1F484E090E09093C3
:1002F0000F0180930E010FC080910E0190910F01AC
:1003000090930F0180930E0107C0000005C000000C
:1003100003C0000001C0000080910E0190910F0108
:100320008430910579F086309105B1F00297D1F4CF
:1003300080911001893098F4809110018F5F809333
:1003400010010DC080911001882359F08091100197
:1003500081508093100105C01092100103C000006D
:1003600001C0000088E290E020911001FC01208390
:100370000000DF91CF910895CF93DF93CDB7DEB723
:1003800081E290E0FC01108282E290E02FEFFC011C
:10039000208387E290E02FEFFC01208388E290E049
:1003A000FC01108287E08093100110920F011092DF
:1003B0000E0180E290E0FC01808183708093110146
:1003C0000E949700F6CFEE0FFF1F0024001C0BBE0B
:0C03D0000790F691E02D0994F894FFCFFF
:0E03DC0000000002000000006E0000000000A3
:00000001FF
