:100000000C944D000C946C000C946C000C946C00DF
:100010000C946C000C946C000C946C000C946C00B0
:100020000C946C000C946C000C946C000C946C00A0
:100030000C946C000C946C000C946C000C946C0090
:100040000C946C000C946C000C946C000C946C0080
:100050000C946C000C946C000C946C000C946C0070
:100060000C946C000C946C000C946C000C946C0060
:100070000C946C000C946C000C946C000C946C0050
:100080000C946C000C946C000C946C00B100B800E3
:10009000D500DC00090110013B0111241FBECFEF88
:1000A000D0E4DEBFCDBF11E0A0E0B1E0EEEAF3E0C6
:1000B00000E00BBF02C007900D92AE30B107D9F738
:1000C00021E0AEE0B1E001C01D92A231B207E1F73C
:1000D0000E94A3010C94D5010C940000CF93DF93F0
:1000E00000D01F92CDB7DEB789837B836A83898175
:1000F0008A3031F48A819B81BC018DE00E946E00C0
:1001000080EC90E0FC018081882F90E0807299273C
:10011000892BB1F386EC90E02981FC01208380E0FB
:1001200090E00F900F900F90DF91CF910895CF93B3
:10013000DF93CDB7DEB780910E0190910F01CC0116
:10014000A0E0B0E040E050E026E030E0841B950BFA
:100150002817390708F4B0C08A5B9F4FFC010C9444
:10016000CC0181E090E090930F0180930E01B0C02C
:1001700080911101882339F481E090E090930F0180
:1001800080930E01A5C080911101813039F482E085
:1001900090E090930F0180930E019AC084E090E06C
:1001A00090930F0180930E0193C083E090E09093B1
:1001B0000F0180930E018CC080911101882339F4C6
:1001C00081E090E090930F0180930E017EC08091BA
:1001D0001101813039F483E090E090930F01809316
:1001E0000E0173C080911101823039F484E090E0F7
:1001F00090930F0180930E0168C0809111018330AC
:1002000009F063C086E090E090930F0180930E01A7
:100210005CC085E090E090930F0180930E0158C080
:1002200080911101882339F481E090E090930F01CF
:1002300080930E0120C080911101813039F482E059
:1002400090E090930F0180930E0115C080911101F1
:10025000823039F485E090E090930F0180930E0195
:100260000AC080911101833031F486E090E09093D0
:100270000F0180930E0180911101833039F486E0E3
:1002800090E090930F0180930E0121C080911101A5
:10029000813039F482E090E090930F0180930E0159
:1002A00016C080911101823091F484E090E0909327
:1002B0000F0180930E010BC080910E0190910F01F0
:1002C00090930F0180930E0103C0000001C0000055
:1002D00080910E0190910F018230910581F0833061
:1002E000910518F4019739F024C08430910589F004
:1002F0000697C9F01EC087E0809310011AC0809154
:100300001001893098F4809110018F5F8093100163
:100310000DC080911001882359F080911001815007
:100320008093100105C01092100103C0000001C0AD
:10033000000088E290E020911001FC012083000081
:10034000DF91CF910895CF93DF93CDB7DEB781E2F0
:1003500090E0FC01108282E290E02FEFFC0120830C
:1003600087E290E02FEFFC01208388E290E0FC011F
:10037000108287E08093100181E090E090930F015C
:1003800080930E0180E290E0FC0180818370809375
:1003900011010E949700F6CFEE0FFF1F0024001CF2
:0E03A0000BBE0790F691E02D0994F894FFCF64
:0E03AE0000000002000000006E0000000000D1
:00000001FF
