:100000000C9446000C9465000C9465000C946500FB
:100010000C9465000C9465000C9465000C946500CC
:100020000C9465000C9465000C9465000C946500BC
:100030000C9465000C9465000C9465000C946500AC
:100040000C9465000C9465000C9465000C9465009C
:100050000C9465000C9465000C9465000C9465008C
:100060000C9465000C9465000C9465000C9465007C
:100070000C9465000C9465000C9465000C9465006C
:100080000C9465000C9465000C94650011241FBE4F
:10009000CFEFD0E4DEBFCDBF11E0A0E0B1E0E0EBF8
:1000A000F2E000E00BBF02C007900D92AE30B10746
:1000B000D9F721E0AEE0B1E001C01D92A331B20753
:1000C000E1F70E9432010C9456010C940000CF938A
:1000D000DF9300D01F92CDB7DEB789837B836A831D
:1000E00089818A3031F48A819B81BC018DE00E9434
:1000F000670080EC90E0FC018081882F90E08072A6
:100100009927892BB1F386EC90E02981FC012083AB
:1001100080E090E00F900F900F90DF91CF910895C5
:10012000CF93DF93CDB7DEB780910E0190910F0191
:100130008230910569F18330910528F4009751F0E0
:10014000019779F067C083309105C1F1049709F4F4
:100150004BC060C081E090E090930F0180930E014E
:1001600065C080911201882339F082E090E090937D
:100170000F0180930E0153C080911201882309F072
:100180004EC081E090E090930F0180930E0147C034
:1001900080911201882339F082E090E090930F0162
:1001A00080930E013EC0809112018823D1F583E037
:1001B00090E090930F0180930E0133C08091120163
:1001C000882339F084E090E090930F0180930E0132
:1001D0002AC080911201882331F583E090E090934A
:1001E0000F0180930E011FC080911201882339F006
:1001F00084E090E090930F0180930E0116C08091EF
:100200001201882391F481E090E090930F01809394
:100210000E010BC010920F0110920E0107C00000DA
:1002200005C0000003C0000001C0000080910E0165
:1002300090910F018130910519F0039729F008C0C2
:1002400081E08093100104C082E0809310010000DF
:1002500085E290E020911001FC0120830000DF91F5
:10026000CF910895CF93DF93CDB7DEB781E290E0D1
:10027000FC01108282E290E02FEFFC01208384E2F7
:1002800090E02FEFFC01208385E290E0FC011082DA
:1002900010920F0110920E0180E290E0FC0180812B
:1002A0008170809312010E949000F6CFF894FFCFE6
:0E02B0000000000200000000670000000000D7
:00000001FF
