:100000000C9446000C9465000C9465000C946500FB
:100010000C9465000C9465000C9465000C946500CC
:100020000C9465000C9465000C9465000C946500BC
:100030000C9465000C9465000C9465000C946500AC
:100040000C9465000C9465000C9465000C9465009C
:100050000C9465000C9465000C9465000C9465008C
:100060000C9465000C9465000C9465000C9465007C
:100070000C9465000C9465000C9465000C9465006C
:100080000C9465000C9465000C94650011241FBE4F
:10009000CFEFD0E4DEBFCDBF11E0A0E0B1E0E2ECF5
:1000A000F2E000E00BBF02C007900D92AE30B10746
:1000B000D9F721E0AEE0B1E001C01D92A231B20754
:1000C000E1F70E9437010C945F010C940000CF937C
:1000D000DF9300D01F92CDB7DEB789837B836A831D
:1000E00089818A3031F48A819B81BC018DE00E9434
:1000F000670080EC90E0FC018081882F90E08072A6
:100100009927892BB1F386EC90E02981FC012083AB
:1001100080E090E00F900F900F90DF91CF910895C5
:10012000CF93DF93CDB7DEB780910E0190910F0191
:100130008130910589F08130910538F08230910548
:1001400031F1039709F450C06BC081E090E09093C7
:100150000F0180930E016EC080911101813021F05A
:1001600080911101823039F481E090E090930F0189
:1001700080930E015CC080911101843009F057C05A
:1001800082E090E090930F0180930E0150C0809127
:100190001101843041F080911101813021F480916E
:1001A0001101823039F082E090E090930F0180934A
:1001B0000E013FC080911101823039F483E090E05C
:1001C00090930F0180930E0134C080911101813012
:1001D00021F080911101823061F581E090E09093EF
:1001E0000F0180930E0125C080911101882339F4FD
:1001F00083E090E090930F0180930E0111C08091F5
:100200001101803839F484E090E090930F018093DD
:100210000E0106C081E090E090930F0180930E01E3
:1002200081E090E090930F0180930E0103C00000E5
:1002300001C0000080910E0190910F018330910563
:1002400039F08430910539F0029739F41092100199
:1002500081E0809310011092100185E290E02091DE
:100260001001FC0120830000DF91CF910895CF930E
:10027000DF93CDB7DEB781E290E0FC01108282E22D
:1002800090E02FEFFC01208384E290E02FEFFC014F
:10029000208385E290E0FC0110821092100181E041
:1002A00090E090930F0180930E0180E290E0FC01BA
:1002B00080818370809311010E949000F6CFF894A2
:0202C000FFCF6E
:0E02C2000000000200000000670000000000C5
:00000001FF
