:100000000C9446000C9465000C9465000C946500FB
:100010000C9465000C9465000C9465000C946500CC
:100020000C9465000C9465000C9465000C946500BC
:100030000C9465000C9465000C9465000C946500AC
:100040000C9465000C9465000C9465000C9465009C
:100050000C9465000C9465000C9465000C9465008C
:100060000C9465000C9465000C9465000C9465007C
:100070000C9465000C9465000C9465000C9465006C
:100080000C9465000C9465000C94650011241FBE4F
:10009000CFEFD0E4DEBFCDBF11E0A0E0B1E0E6E4F9
:1000A000F2E000E00BBF02C007900D92AE30B10746
:1000B000D9F721E0AEE0B1E001C01D92A331B20753
:1000C000E1F70E94FD000C9421010C940000CF93F5
:1000D000DF9300D01F92CDB7DEB789837B836A831D
:1000E00089818A3031F48A819B81BC018DE00E9434
:1000F000670080EC90E0FC018081882F90E08072A6
:100100009927892BB1F386EC90E02981FC012083AB
:1001100080E090E00F900F900F90DF91CF910895C5
:10012000CF93DF93CDB7DEB780910E0190910F0191
:100130008130910569F08130910518F0029731F115
:100140003BC081E090E090930F0180930E0139C095
:1001500080911201882379F080911101882359F44C
:1001600082E090E090930F0180930E018091120144
:100170008093110126C081E090E090930F0180935D
:100180000E0180911201809311011BC08091120118
:10019000882359F080911101882339F481E090E09F
:1001A00090930F0180930E010CC082E090E0909339
:1001B0000F0180930E0105C010920F0110920E01E5
:1001C000000080910E0190910F018130910519F08E
:1001D000029729F008C081E08093100104C082E0FA
:1001E00080931001000085E290E020911001FC0155
:1001F00020830000DF91CF910895CF93DF93CDB797
:10020000DEB781E290E0FC01108282E290E02FEF05
:10021000FC01208384E290E02FEFFC01208385E243
:1002200090E0FC01108210920F0110920E0180E20A
:1002300090E0FC0180818170809312010E94900007
:06024000F6CFF894FFCF99
:0E024600000000020000000067000000000041
:00000001FF
