:100000000C9446000C9465000C9465000C946500FB
:100010000C9465000C9465000C9465000C946500CC
:100020000C9465000C9465000C9465000C946500BC
:100030000C9465000C9465000C9465000C946500AC
:100040000C9465000C9465000C9465000C9465009C
:100050000C9465000C9465000C9465000C9465008C
:100060000C9465000C9465000C9465000C9465007C
:100070000C9465000C9465000C9465000C9465006C
:100080000C9465000C9465000C94650011241FBE4F
:10009000CFEFD0E4DEBFCDBF11E0A0E0B1E0ECEAED
:1000A000F2E000E00BBF02C007900D92AE30B10746
:1000B000D9F721E0AEE0B1E001C01D92A331B20753
:1000C000E1F70E9430010C9454010C940000CF938E
:1000D000DF9300D01F92CDB7DEB789837B836A831D
:1000E00089818A3031F48A819B81BC018DE00E9434
:1000F000670080EC90E0FC018081882F90E08072A6
:100100009927892BB1F386EC90E02981FC012083AB
:1001100080E090E00F900F900F90DF91CF910895C5
:10012000CF93DF93CDB7DEB780910E0190910F0191
:100130008230910509F456C08330910530F4009760
:1001400061F0019709F43FC079C08330910509F44B
:1001500058C0049709F45EC071C0809112018330C9
:1001600039F483E090E090930F0180930E016BC00F
:1001700080911201823059F480911101882339F065
:1001800082E090E090930F0180930E011BC080915C
:100190001201813059F480911101893039F081E0E8
:1001A00090E090930F0180930E010CC0809112019A
:1001B000882309F048C084E090E090930F01809379
:1001C0000E0141C040C0809111018F5F80931101E9
:1001D00084E090E090930F0180930E0181E0809382
:1001E000100134C08091110181508093110184E08D
:1001F00090E090930F0180930E0181E080931001B5
:1002000025C01092110184E090E090930F0180933B
:100210000E011CC080911201882329F410920F0155
:1002200010920E0112C080911201833071F483E0AC
:1002300090E090930F0180930E0107C010920F0180
:1002400010920E0103C0000001C0000088E290E09F
:1002500020911101FC0120830000DF91CF910895CE
:10026000CF93DF93CDB7DEB781E290E0FC0110823F
:1002700082E290E02FEFFC01208387E290E02FEFF5
:10028000FC01208388E290E027E0FC01208387E0E6
:100290008093110180E290E0FC0180818370809363
:0C02A00012010E949000F6CFF894FFCFEE
:0E02AC000000000200000000670000000000DB
:00000001FF
